:020000040800F2
:10000000080A002029020008910D0008C10C000810
:100010008D0D0008850400082B2400080000000056
:10002000000000000000000000000000E9100008CF
:10003000390B000800000000F50E0008CD14000880
:10004000430200084302000843020008430200087C
:10005000430200084302000843020008430200086C
:10006000430200084302000843020008430200085C
:10007000430200084302000843020008430200084C
:10008000430200084302000843020008430200083C
:10009000430200084302000843020008430200082C
:1000A000430200084302000843020008430200081C
:1000B000611B0008430200084302000843020008D5
:1000C00043020008430200084302000843020008FC
:1000D00043020008B11E000843020008E92000089E
:1000E00043020008430200084302000843020008DC
:1000F00043020008F51B0008430200084302000801
:1001000043020008430200084302000843020008BB
:1001100043020008430200084302000843020008AB
:10012000430200084302000843020008430200089B
:10013000430200084302000843020008430200088B
:10014000430200084302000843020008430200087B
:10015000430200084302000843020008430200086B
:10016000430200084302000843020008430200085B
:10017000430200084302000843020008430200084B
:10018000430200084302000800F002F800F03CF8C7
:100190000AA090E8000C82448344AAF10107DA45E2
:1001A00001D100F031F8AFF2090EBAE80F0013F0F8
:1001B000010F18BFFB1A43F0010318477C550000DC
:1001C0009C550000103A24BF78C878C1FAD852076D
:1001D00024BF30C830C144BF04680C6070470000C1
:1001E0000023002400250026103A28BF78C1FBD840
:1001F000520728BF30C148BF0B6070471FB505F0DC
:1002000040F91FBD10B510BD00F076F81146FFF79C
:10021000F5FF03F0F3FC00F094F803B4FFF7F2FFEE
:1002200003BC00F095F800000948804709480047E2
:10023000FEE7FEE7FEE7FEE7FEE7FEE7FEE7FEE796
:10024000FEE7FEE704480549054A064B70470000F3
:10025000D11400088901000808040020080A0020C1
:10026000080600200806002010B5203AC0F00B80D8
:10027000B1E81850203AA0E81850B1E81850A0E8AA
:100280001850BFF4F5AF5FEA027C24BFB1E8185004
:10029000A0E8185044BF18C918C0BDE810405FEA74
:1002A000827C24BF51F8043B40F8043B08BF7047F0
:1002B000D20728BF31F8023B48BF11F8012B28BFF5
:1002C00020F8023B48BF00F8012B70477047704789
:1002D000704710B500F008F8006810BD10B504466E
:1002E00000F002F8046010BD00487047A40300202D
:1002F00000487047A40300207546FFF7F9FFAE469B
:1003000005006946534620F00700854618B020B521
:10031000FFF798FFBDE820404FF000064FF00007C0
:100320004FF000084FF0000B21F00701AC46ACE89D
:10033000C009ACE8C009ACE8C009ACE8C0098D460A
:1003400070470446AFF300802046FFF766FF0000C9
:1003500001491820ABBEFEE72600020070470000EE
:100360002F4890ED000AD0ED020A30EE600A80EDD1
:10037000030A90ED030ADFED2B0AB4EEE00AF1EE7A
:1003800010FA07DD90ED030ADFED270A30EE600A70
:1003900080ED030A224890ED030ADFED240AB4EE53
:1003A000E00AF1EE10FA07D290ED030ADFED1E0A23
:1003B00030EE200A80ED030A194890ED090AD0EDCD
:1003C000030A30EE200A80ED090A90ED050AD0ED0F
:1003D000030A20EE200AD0ED060A90ED091A00EE7D
:1003E000810AD0ED030A90ED041A70EEC10A90ED77
:1003F000071A01EE200A80ED080A90ED030A80ED4D
:10040000040A90ED080AFFEE000A20EE200A80EDB3
:10041000080A90ED080A064880ED180A70470000A7
:10042000C8010020000034430000B443000034C37E
:100430005C01002008B54FF4A06000F0E7FCA820A4
:1004400003F042FB01F0EAFD4FF4E13001F08EFED3
:1004500000F046FC002006231A460521009000F01B
:1004600013F800F0E7FA01F033FC0548006808B91A
:10047000012000E000200249086000F0D1FC08BD26
:10048000BC02404200BFFEE72DE9F0418AB00446BD
:100490000D4616461F46DDF840800121480600F053
:1004A0003BFD4FF4C050089002208DF8240000203E
:1004B0008DF8260003208DF8250001208DF82700F7
:1004C00008A9234800F08EFB09220B21204800F0E8
:1004D000D1FB09220C211E4800F0CCFB00208DF836
:1004E0001A008DF81B008DF81C0001208DF81D00EE
:1004F00000208DF81E008DF81F008DF816808DF8F5
:1005000017408DF818608DF81950ADF8147005A9D2
:10051000104800F0DFF800208DF80E008DF80F0075
:1005200001208DF810000020ADF80400ADF80600A1
:10053000ADF80800ADF80A00ADF80C0001208DF808
:10054000110001A800F042F800200AB0BDE8F081D7
:1005500000000240006400402DE9F04186B00746EB
:100560000D4690460024CDF8048012200290002011
:100570008DF80C008DF80D008DF80E5000BF05E0D1
:10058000395D0DF10F000155601C84B2AC42F7DB00
:1005900001A90D4800F028F90646002401E0601C7E
:1005A00084B23146084800F0B3F918B940F6FF703C
:1005B0008442F4DB40F6FF70844203DB012006B086
:1005C000BDE8F0810020FAE70064004010B500218A
:1005D000837A012202FA03F13D4A126842F00102D5
:1005E0003B4B1A603A4A1C3212688A43384B1C3320
:1005F0001A60027BCAB9364A0C3212688A43344BFD
:100600000C331A604288C38842EA0343304A4032BE
:10061000847A42F834300288838842EA03432C4AC1
:100620004032847A02EBC4025360027B012A19D162
:10063000274A0C3212680A43254B0C331A60428851
:10064000038842EA0343224A4032847A42F8343033
:10065000C288838842EA03431D4A4032847A02EB0F
:10066000C4025360C27A3AB9194A121D12688A4309
:10067000174B1B1D1A6006E0154A121D12680A432B
:10068000134B1B1D1A60028932B9114A14321268C9
:100690008A430F4B14331A600289012A06D10C4A8F
:1006A000143212680A430A4B14331A60427B012A3F
:1006B00006D1074A1C3212680A43054B1C331A60E4
:1006C000034A126822F00102014B1A6010BD0000BB
:1006D0000066004030B5024600200023146824F074
:1006E00002041460146844F00104146000E05B1C10
:1006F000546804F001041CB94FF6FF74A342F6D10C
:10070000546804F001040CB900206CE08C79012CD1
:1007100004D1146844F08004146003E0146824F0E9
:1007200080041460CC79012C04D1146844F0400496
:10073000146003E0146824F0400414600C7A012C67
:1007400004D1146844F02004146003E0146824F019
:10075000200414604C7A012C04D1146844F0100475
:10076000146003E0146824F0100414608C7A012CE7
:1007700004D1146844F00804146003E0146824F001
:1007800008041460CC7A012C04D1146844F00404E9
:10079000146003E0146824F0040414608C78A40747
:1007A000CD7844EA05640D7944EA05444D7944EA7C
:1007B00005540D886D1E2C43D461146824F0010487
:1007C0001460002300E05B1C546804F001041CB1B9
:1007D0004FF6FF74A342F6D1546804F001040CB143
:1007E000002000E0012030BD10B5024600209368D3
:1007F00003F08063B3F1806F00D110E0936803F0E1
:100800000063B3F1006F01D1012008E0936803F0A9
:100810008053B3F1805F01D1022000E0042004285E
:1008200074D002F5C07303EB00131B6803F00104DE
:1008300002F5C07303EB00131C600B7A7BB94B7A93
:100840000C8843EA445302F5C07404EB0014246896
:10085000234302F5C07404EB0014236010E00B7A0C
:100860004C6843EAC4034C7A234302F5C07404EB9A
:1008700000142468234302F5C07404EB00142360C1
:100880008B7A03F00F038B7202F5C07303EB001336
:100890005B6823F00F0402F5C07303EB00135C6088
:1008A00002F5C07303EB00135B688C7A234302F5F7
:1008B000C07404EB001463608B7B1C064B7B44EA22
:1008C00003440B7B44EA0323CC7A234302F5C07430
:1008D00004EB0014A3608B7C1C064B7C44EA0344AD
:1008E0000B7C44EA0323CC7B234302F5C07404EB66
:1008F0000014E36002F5C07303EB00131B6843F0C0
:10090000010402F5C07303EB00131C6010BD00006E
:1009100010B50246002321B1012907D002290FD1C9
:1009200009E090681D4C00EA04030BE090681C4C41
:1009300000EA040306E090681A4C00EA040301E0B0
:10094000002300BF00BF184C181BA34216D007DCC1
:1009500083B16FF08060184470B1022818D111E0A3
:10096000B0F5007F10D0114C204448B1B0F5003FE5
:100970000ED10BE002230DE000230BE0002309E081
:10098000002307E0012305E0012303E0012301E048
:10099000002300BF00BFD8B210BD00000300000458
:1009A0000003000800000310000100080001FFF729
:1009B0003EB5FF2001F036FCFF2001F033FC0120A2
:1009C00001F030FC002001F02DFC0D2001F02AFC8C
:1009D000042001F027FC122013490880134A343206
:1009E00007CA8DE8070000240BE01DF8040001F0A1
:1009F00019FC1DF804000C49098808440A490880BC
:100A0000641C0C2CF1DB08480088FF2190FBF1F2FC
:100A100001FB120004490880087801F003FC002063
:100A2000034908603EBD0000380000205C01002042
:100A30003400002010B5002403E055200F4908556C
:100A4000641C082CF9DB002208210C48FFF784FD08
:100A50004FF4167003F05EF8032008490870012275
:100A600008210648FFF778FD4FF4FA7003F052F8BA
:100A700000F0E2FB00F004F810BD00001C000020B4
:100A800010B510202A490870002048702948808934
:100A9000000A88702748007BC87044220821244837
:100AA000FFF75AFD642003F051F810202049087028
:100AB000002048701F480088000A88701D48007890
:100AC000C870142208211A48FFF746FD642003F07D
:100AD0003DF810201649087000204870154880889D
:100AE000000A887013480079C87024220821104831
:100AF000FFF732FD642003F029F810200C4908703C
:100B0000002048700B480089000A88700948007A64
:100B1000C870342208210648FFF71EFD3422082140
:100B20000348FFF719FD642003F010F810BD000022
:100B30001C0000205C0100207047000010B500245C
:100B400025480078062818D2DFE800F01703070BC5
:100B50000F1301202149086010E002201F4908609E
:100B60000CE003201D49086008E004201B490860D0
:100B700004E005201949086000E000BF00BF1748E5
:100B80000068012810D1002405E01349601C085CAE
:100B900013490855641C0C2CF7DB01F011F90020F7
:100BA0000E490860012010BD0C480068052810D1CE
:100BB000002405E00849601C085C09490855641CCC
:100BC0000C2CF7DB01F038F9002004490860012003
:100BD000E9E70020E7E70000F001002034000020F2
:100BE00090030020F0B50A4600210023002400BF36
:100BF0003DE0012505FA01F3156805EA03049C426E
:100C000034D105684F000326BE40B5430560157911
:100C10004E00B5400668354305601579012D02D0B8
:100C20001579022D16D185684F000326BE40B543C5
:100C3000856055794E00B5408668354385604568C6
:100C400001268E40B5434560456896798E40B6B220
:100C500035434560C5684F000326BE40B543C560B7
:100C6000D5794E00B540C6683543C560491C10298A
:100C7000BFD3F0BDF0B5002300244D07ED0E02FAFE
:100C800005F3CE1000F1200555F826504E07F70E5B
:100C90000F26BE40B543CF1000F1200646F827507E
:100CA000CE1000F1200555F8265045EA0304CE1079
:100CB00000F1200545F82640F0BD41837047000053
:100CC0000AE00648006808B9012000E00020034956
:100CD0000860C82002F01EFFF3E70000BC0240429B
:100CE0001CB50121082000F007F90121042000F0C3
:100CF00003F94FF40040009001208DF8040000201B
:100D00008DF8060003208DF8050001208DF80700FE
:100D100069461B48FFF766FF4FF480700090012082
:100D20008DF8040000208DF8060003208DF80500E2
:100D300001208DF8070069461248FFF753FF012094
:100D400000908DF8040000208DF8060003208DF837
:100D5000050001208DF8070069460B48FFF742FFA8
:100D600001210948FFF7A9FF4FF480710548FFF7FB
:100D7000A4FF4FF400410248FFF79FFF1CBD000095
:100D800000000240000C02400004024000BFFEE7E9
:100D90007047000070B5002100230F22C4781CB3F7
:100DA000174C246804F4E064C4F5E064C4F307213C
:100DB000C1F10404E3B20A4144789C40E1B2847872
:100DC000144021430C07210E0E4C05786155047820
:100DD00004F01F050124AC4005786D11AD0005F14C
:100DE000E025C5F8004109E0047804F01F0501245E
:100DF000AC40054D0678761145F8264070BD0000E0
:100E00000CED00E000E400E080E100E00249014375
:100E1000024A1160704700000000FA050CED00E086
:100E20009FED140A144880ED020A9FED120A80ED2E
:100E3000030A9FED100A80ED040A9FED0E0A80ED73
:100E4000090A9FED0C0A80ED070A9FED0A0A80ED62
:100E5000060A9FED080A80ED050A9FED060A80ED5F
:100E6000000A9FED040A80ED010A9FED020A80ED61
:100E7000080A704700000000C80100203EB5FF20AE
:100E800001F0D0F9FF2001F0CDF9012001F0CAF9FD
:100E9000002001F0C7F90D2001F0C4F9022001F093
:100EA000C1F9102011490880114A103207CA8DE893
:100EB000070000240BE01DF8040001F0B3F91DF851
:100EC00004000A490988084408490880641C0C2C5D
:100ED000F1DB06480088FF2190FBF1F201FB1200D4
:100EE00002490880087801F09DF93EBD38000020D5
:100EF0005C0100207047000029B1064A12680243D5
:100F0000044B1A6004E0034A12688243014B1A60E2
:100F1000704700003038024029B1064A1268024387
:100F2000044B1A6004E0034A12688243014B1A60C2
:100F3000704700004038024029B1064A1268024357
:100F4000044B1A6004E0034A12688243014B1A60A2
:100F50007047000044380240F0B500210022002410
:100F6000022500260223324F3F6807F00C0121B111
:100F7000042905D0082937D105E02E4F076036E057
:100F80002D4F076033E02A4F3F1F3F68C7F380565D
:100F9000274F3F1F3F6807F03F036EB1264FB7FB57
:100FA000F3F7DFF88CC0ACF1040CDCF800C0CCF334
:100FB000881C07FB0CF40CE01E4FB7FBF3F7DFF8BF
:100FC00070C0ACF1040CDCF800C0CCF3881C07FB4B
:100FD0000CF4174F3F1F3F68C7F301477F1C7D008C
:100FE000B4FBF5F7076002E0124F076000BF00BFD7
:100FF0000F4F3F6807F0F0010909104F7A5C07684E
:10100000D74047600A4F3F6807F4E051890A0B4F09
:101010007A5C4768D7408760054F3F6807F46041B6
:10102000490B064F7A5C4768D740C760F0BD0000A7
:10103000083802400024F40000127A002400002046
:1010400010B5FFF77BFD0446012C01D000F04EF8EF
:1010500010BD000010B59FED220A224880ED130A52
:101060009FED1F0A80ED140A9FED1D0A80ED150A01
:101070009FED1B0A80ED0A0A9FED190A80ED0B0A0D
:101080009FED170A80ED0C0A9FED150A80ED160AF8
:101090009FED130A80ED170A9FED110A80ED180AE3
:1010A00000201049086048608860C860FF2001F097
:1010B000B9F8FF2001F0B6F8012001F0B3F80020E4
:1010C00001F0B0F8022001F0ADF8032001F0AAF819
:1010D000002001F0A7F8062001F0A4F810BD0000E0
:1010E000000000005C0100207047000010B54021A6
:1010F000144801F0CBF8E0B113480068022805D18C
:10110000FFF7BCFE00201049086012E00E4800689E
:10111000032805D1FFF79EFF00200B49086008E077
:1011200009480068042804D1FFF742FC0020064962
:10113000086000BF4021034801F0A8F80028F9D05A
:1011400010BD000000480040340000200CB5002015
:10115000019000903448006840F4803032490860C3
:1011600000BF3148006800F4003000900198401C36
:101170000190009818B90198B0F5A04FF1D12A4814
:10118000006800F4003010B10120009001E0002060
:1011900000900098012846D123484030006840F074
:1011A00080502149403108602048006840F44040A8
:1011B0001E4908601C48083000681B490831086057
:1011C0000846006840F4004008600846006840F4A3
:1011D000A05008601648091F0860081F006840F00A
:1011E0008070091F086000BF0F48006800F00070A1
:1011F0000028F9D040F205700E4908600A4808300E
:10120000006820F0030008490831086008460068BB
:1012100040F00200086000BF03480830006800F09A
:101220000C000828F8D10CBD0038024000700040C6
:1012300008544007003C024000B52DED088B8FB0EC
:101240007A4890ED160A10EE101A084604F0A8F835
:10125000CDE90801754890ED170A10EE101A0846FE
:1012600004F09EF8CDE90A01704890ED180A10EEDE
:10127000101A084604F094F8CDE90C019DED0C1B02
:10128000B0EE410AF0EE610A9FED691B53EC112BA1
:1012900051EC100B03F0A0FB41EC190B9FED660B1A
:1012A00053EC102B03F086FD41EC180B9FED640B03
:1012B00053EC102B03F07EFDCDE90C01694608A824
:1012C00000F09CFA9DED001BB0EE410AF0EE610AC1
:1012D0009FED5D1B53EC112B51EC100B03F07CFBCD
:1012E00041EC1B0B9FED560B53EC102B03F074FBE2
:1012F00041EC1A0B9FED560B53EC102B03F05AFDEB
:1013000041EC190B9FED540B53EC102B03F052FDE5
:1013100041EC180B03F0B8FC444908609DED021B3A
:10132000B0EE410AF0EE610A9FED471B53EC112B22
:1013300051EC100B03F050FB41EC1B0B9FED400BED
:1013400053EC102B03F048FB41EC1A0B9FED400BC4
:1013500053EC102B03F02EFD41EC190B9FED3E0BCF
:1013600053EC102B03F026FD41EC180B03F08CFC22
:101370002E4948609DED041BB0EE410AF0EE610A73
:101380009FED311B53EC112B51EC100B03F024FBA0
:1013900041EC1B0B9FED2A0B53EC102B03F01CFBB5
:1013A00041EC1A0B9FED2A0B53EC102B03F002FDBE
:1013B00041EC190B9FED280B53EC102B03F0FAFCBA
:1013C00041EC180B03F060FC184988609DED061B8A
:1013D000B0EE410AF0EE610A9FED1B1B53EC112B9E
:1013E00051EC100B03F0F8FA41EC1B0B9FED140BC2
:1013F00053EC102B03F0F0FA41EC1A0B9FED140B99
:1014000053EC102B03F0D6FC41EC190B9FED120BA3
:1014100053EC102B03F0CEFC41EC180B03F034FC22
:101420000249C8600FB0BDEC088B00BD5C01002014
:101430000000000000004E400000000000000040DE
:1014400000000000FB210940000000403333B33F9F
:101450000000000000003E400000000000803C4012
:10146000B0EE401ABDEEC10A10EE100A002801DBF2
:10147000014600E0414200EE101AB8EEC00AB4EE98
:10148000E00AF1EE10FA02D2B0EE410A7047B5EE72
:10149000C01AF1EE10FA02D2B1EE600AF6E7B0EE31
:1014A000600AF3E7042808D14FF0E021096941F010
:1014B00004014FF0E022116107E04FF0E0210969DB
:1014C00021F004014FF0E0221161704770470000E5
:1014D00010B51548006840F47000134908601348BF
:1014E000006840F001001149086000200F490831F0
:1014F00008600E4800680E4908400C4908600D4815
:10150000091D0860081F006820F48020091F08607A
:10151000002006490C310860FFF718FE4FF000600C
:1015200001498039086010BD88ED00E000380240B4
:10153000FFFFF6FE1030002410B52DED0C8B554842
:1015400090ED150A80ED180A90ED0F0A10EE101AB2
:10155000084603F025FF41EC1D0BB0EE4D0AF0EEFE
:101560006D0A01F009FEB0EE40BAF0EE60BA4948EB
:1015700090ED140A10EE101A084603F011FF41EC2A
:101580001C0B53EC1B2B03F015FC41EC190B4148D1
:1015900090ED0F0A10EE101A084603F001FF41EC1F
:1015A0001D0BB0EE4D0AF0EE6D0A00F059FFB0EEE3
:1015B00040BAF0EE60BA374890ED130A10EE101AF8
:1015C000084603F0EDFE41EC1C0B53EC1B2B03F023
:1015D000F1FB41EC1A0B53EC192B03F0F7FD41EC36
:1015E000180B03F00BF92B498865084690ED0F0A9C
:1015F00010EE101A084603F0D3FE41EC1D0BB0EEBE
:101600004D0AF0EE6D0A00F02BFFB0EE40BAF0EE9E
:1016100060BA204890ED140A10EE101A084603F044
:10162000BFFE41EC1C0B53EC1B2B03F0C3FB41EC46
:10163000190B184890ED0F0A10EE101A084603F027
:10164000AFFE41EC1D0BB0EE4D0AF0EE6D0A01F05D
:1016500093FDB0EE40BAF0EE60BA0E4890ED130A7A
:1016600010EE101A084603F09BFE41EC1C0B53ECE5
:101670001B2B03F09FFB41EC1A0B53EC192B03F0CF
:10168000EFF841EC180B03F0B9F80249C865BDEC5E
:101690000C8B10BD5C01002010B52DED0C8B564855
:1016A00090ED180A80ED150A90ED0F0A10EE101A51
:1016B000084603F075FE41EC1D0BB0EE4D0AF0EE4E
:1016C0006D0A01F059FDB0EE40BAF0EE60BA4A483A
:1016D00090ED170A10EE101A084603F061FE41EC77
:1016E0001C0B53EC1B2B03F065FB41EC190B424820
:1016F00090ED0F0A10EE101A084603F051FE41EC6F
:101700001D0BB0EE4D0AF0EE6D0A00F0A9FEB0EE32
:1017100040BAF0EE60BA384890ED160A10EE101A92
:10172000084603F03DFE41EC1C0B53EC1B2B03F071
:1017300041FB41EC1A0B53EC192B03F091F841ECEF
:10174000180B03F05BF82C49C864084690ED0F0AAB
:1017500010EE101A084603F023FE41EC1D0BB0EE0C
:101760004D0AF0EE6D0A00F07BFEB0EE40BAF0EEEE
:1017700060BA214890ED170A10EE101A084603F0DF
:101780000FFE41EC1C0B53EC1B2B03F013FB41EC45
:10179000180B194890ED0F0A10EE101A084603F0C6
:1017A000FFFD41EC1D0BB0EE4D0AF0EE6D0A01F0AD
:1017B000E3FCB0EE40BAF0EE60BA0F4890ED160AC6
:1017C000B1EE400A10EE101A084603F0E9FD41ECB4
:1017D0001C0B53EC1B2B03F0EDFA41EC1A0B53ECF2
:1017E000182B03F03DF841EC190B03F007F8024900
:1017F0000865BDEC0C8B10BD5C01002070B52DEDB3
:101800000C8B04460D469FEDB91B9FEDBA0B00F003
:1018100097FEB0EE40BAF0EE60BA94ED001BB0EE69
:10182000410AF0EE610A53EC102B51EC1B0B03F054
:10183000C1FA41EC1A0B9FEDAF0B53EC102B03F0E8
:10184000CBF841EC180B9FEDA91B9FEDAA0B00F004
:1018500077FEB0EE40DAF0EE60DA94ED021BB0EE07
:10186000410AF0EE610A53EC102B51EC1D0B03F012
:10187000A1FA41EC1C0B9FED9F0B53EC102B03F0D6
:10188000ABF841EC1A0B94ED041BB0EE410AF0EEFC
:10189000610A53EC102B9FED991B51EC110B03F0D7
:1018A00089FA41EC1B0B53EC1A2B03F08FFC41EC33
:1018B000190B53EC182B02F0D3FFC5E900019FED83
:1018C0008B1B9FED8C0B00F03BFEB0EE40BAF0EEB0
:1018D00060BA94ED001BB0EE410AF0EE610A53ECE1
:1018E000102B51EC1B0B03F065FA41EC1A0B9FED2A
:1018F000810B53EC102B03F06FF841EC180B9FEDAC
:101900007B1B9FED7C0B00F01BFEB0EE40DAF0EE8F
:1019100060DA94ED021BB0EE410AF0EE610A53EC7E
:10192000102B51EC1D0B03F045FA41EC1C0B9FED05
:10193000710B53EC102B03F04FF841EC1A0B94EDA4
:10194000041BB0EE410AF0EE610A53EC102B9FED40
:101950006B1B51EC110B03F02DFA41EC1B0B53ECFC
:101960001A2B03F033FC41EC190B53EC182B03F04A
:101970002DFCC5E902019FED5D1B9FED5E0B00F0A4
:10198000DFFDB0EE40BAF0EE60BA94ED001BB0EEB1
:10199000410AF0EE610A53EC102B51EC1B0B03F0E3
:1019A00009FA41EC1A0B9FED530B53EC102B03F08B
:1019B00013F841EC180B9FED4D1B9FED4E0B00F003
:1019C000BFFDB0EE40DAF0EE60DA94ED021BB0EE4F
:1019D000410AF0EE610A53EC102B51EC1D0B03F0A1
:1019E000E9F941EC1C0B9FED430B53EC102B02F07B
:1019F000F3FF41EC1A0B94ED041BB0EE410AF0EE3C
:101A0000610A53EC102B9FED3D1B51EC110B03F0C1
:101A1000D1F941EC1B0B53EC1A2B02F021FF41ECE6
:101A2000190B53EC182B03F0D1FBC5E904019FED12
:101A30002F1B9FED300B00F083FDB0EE40BAF0EEAF
:101A400060BA94ED001BB0EE410AF0EE610A53EC6F
:101A5000102B51EC1B0B03F0ADF941EC1A0B9FED71
:101A6000250B53EC102B02F0B7FF41EC180B9FED48
:101A70001F1B9FED200B00F063FDB0EE40DAF0EE8F
:101A800060DA94ED021BB0EE410AF0EE610A53EC0D
:101A9000102B51EC1D0B03F08DF941EC1C0B9FED4D
:101AA000150B53EC102B02F097FF41EC1A0B94ED41
:101AB000041BB0EE410AF0EE610A53EC102B9FEDCF
:101AC0000F1B51EC110B03F075F941EC1B0B53ECA0
:101AD0001A2B02F0C5FE41EC190B53EC182B02F047
:101AE000BFFEC5E90601BDEC0C8B70BD0000000017
:101AF0000000E03F00000000000000400000002067
:101B00008F19D23F7FB505460C4601210802FFF729
:101B100003FA0295ADF804400020ADF80600ADF8D8
:101B20000C0001A90D4800F009F9012211460B48EB
:101B300000F0FAF80121094800F0D9F82D208DF8BD
:101B4000000001208DF8010002208DF80200012024
:101B50008DF803006846FFF71DF97FBD00200040A7
:101B600010B50121880700F0CEF801280FD10A48EE
:101B7000806E012801D1FFF78FFD0748406E0128D4
:101B800001D1FFF7D9FCFFF757FBFEF779FF0121E1
:101B9000880700F0A9F810BD5C0100207FB505465C
:101BA0000C4601210846FFF7B7F90295ADF804404D
:101BB0000020ADF80600ADF80C0001A94FF0804000
:101BC00000F0BCF801221146900700F0ADF80121A9
:101BD000880700F08CF81C208DF8000003208DF899
:101BE000010001208DF802008DF803006846FFF720
:101BF000D1F87FBD10B52DED048B01212D4800F0EB
:101C000082F801284ED12C4890ED120AB5EEC00A98
:101C1000F1EE10FA44D190ED0C0A284880ED020A4A
:101C200090ED000AD0ED010A30EE600A10EE101AB5
:101C3000084603F0B5FB41EC190BB0EE490AF0EE93
:101C4000690A00F071FCB0EE408AF0EE608A9FED08
:101C50001C0B53EC102B51EC180B03F06FF805D252
:101C6000164890ED010A80ED000A05E0124890ED5B
:101C70000C0A124880ED000A104890ED000A80ED31
:101C8000010AB7EE000A80ED050A9FED0F0A80ED0C
:101C9000070A9FED0E0A80ED060AFEF761FB01E0E0
:101CA000FFF7BEF80121034800F01EF8BDEC048BDD
:101CB00010BD0000002000405C010020C801002091
:101CC000000000000000F03FCDCC4C3E8FC2753CC0
:101CD00010B542F2CF015520FFF760FF42F2CF016D
:101CE0006320FFF70FFF10BDCA430282704721B186
:101CF000028842F00102028004E002884FF6FE737F
:101D00001A400280704730B50246002000230024AC
:101D1000158A05EA0103958905EA010413B10CB19E
:101D2000012000E0002030BD1AB183890B4383817C
:101D300002E083898B438381704700000022028880
:101D4000184B98420ED0184B98420BD0B0F1804FF0
:101D500008D0164B984205D0154B984202D0154B2F
:101D6000984204D14FF68F731A404B881A43124B96
:101D7000984207D0114B984204D04FF6FF431A40C7
:101D80000B891A4302804B68C3620B880385054B9D
:101D9000984202D0044B984201D18B7A03860123EA
:101DA00083827047000001400004014000040040AD
:101DB00000080040000C00400010004000140040EB
:101DC00010B51A48006801282ED1194819490A6827
:101DD000C2644A68026589684165D0ED130AB0EEB5
:101DE000600AF6EE000AFFF73BFB114880ED130A8C
:101DF000D0ED140AB0EE600AF6EE000AFFF730FBF1
:101E00000B4880ED140AD0ED150AB0EE600AF2EE30
:101E1000040AFFF725FB064880ED150A90ED150A28
:101E200080ED120AFFF788FB10BD0000340000208F
:101E30005C0100209003002010B51A4800680528B6
:101E40002ED1194819490A6882654A68C2658968AD
:101E50000166D0ED160AB0EE600AF0EE000AFFF758
:101E6000FFFA114880ED160AD0ED170AB0EE600AAD
:101E7000F0EE000AFFF7F4FA0B4880ED170AD0EDF8
:101E8000180AB0EE600AF3EE040AFFF7E9FA064812
:101E900080ED180A90ED180A80ED120AFFF7FCFB9E
:101EA00010BD0000340000205C01002090030020E1
:101EB00010B540F225514F4800F0F5F900287DD0CB
:101EC0004D480068401C4C49086008460068962848
:101ED00009D1002008604948006808B9012000E0E5
:101EE000002046490860434800F096FAC4B24448CE
:101EF000007830B101280FD002281ED003286CD101
:101F000030E0FF2C07D101203D49087000203D49F9
:101F100008803D49086060E0FE2C08D10220384965
:101F200008703848008820443649088004E00020C2
:101F300033490870334908804FE032480088204414
:101F400030490880304801680068401C2E4A106003
:101F50002E484454104600680C2802DB0320284910
:101F600008703AE027490888C11700EB116109128F
:101F7000A0EB0121234A118010460088844226D11B
:101F8000234822490A6882624A68C26289680163FA
:101F90001E490A6842634A6882638968C16390ED9A
:101FA0000F0ADFED1C0A80EE201AB0EE000A21EEC7
:101FB000000ADFED190A20EE200A00E00EE080EDB5
:101FC0000F0A00200F4908800D49087004E0002026
:101FD0000B4908700B49088000BF00BF40F2255133
:101FE000044800F038F940F22661024800F033F965
:101FF00010BD00000010014018000020A0824142E6
:10200000080000200A0000200C00002054020020DC
:102010005C0100200000B443D80F494000B587B0F0
:1020200001210846FEF768FF01211020FEF784FF1A
:10203000072209212948FEF71DFE07220A21274809
:10204000FEF718FE4FF4C060019002208DF80800E2
:102050008DF8090000208DF80A0001208DF80B0092
:1020600001A91E48FEF7BEFD4FF4E13003900020A9
:10207000ADF81000ADF81200ADF81400ADF818007E
:102080000C20ADF8160003A9154800F05BF90122F9
:1020900040F22551124800F030F90121104800F0BB
:1020A000E9F840210E4800F0CDF825208DF8000019
:1020B00001208DF8010000208DF8020001208DF82C
:1020C00003006846FEF766FE0648006808B901206E
:1020D00000E000200349086007B000BD0000024096
:1020E000001001408082404210B5BEB0002440F292
:1020F00025511B4800F0D7F878B3F82219496846F3
:10210000FEF7B2F8174810380FC802F005FB60B1AF
:10211000FF2000F087F8FF2000F084F8002240F252
:1021200025510F4800F0E9F812E00D48001D008825
:10213000C4B2682C07D10C48006808B9012000E03F
:1021400000200949086021460648103802F004FBC7
:1021500040F22551024800F07EF83EB010BD00006C
:1021600000480040640000208082404210B588B0E2
:10217000044601210220FEF7BFFE01218804FEF77C
:10218000CBFE07220A212548FEF774FD07220B210A
:102190002248FEF76FFD4FF44060029002208DF858
:1021A0000C008DF80D0000208DF80E0001208DF838
:1021B0000F0002A91948FEF715FD4FF4E130049015
:1021C0000020ADF81400ADF81600ADF81800ADF819
:1021D0001C000C20ADF81A0004A9114800F0B2F858
:1021E00001210F4800F046F840210D4800F02AF880
:1021F000012240F225510A4800F07FF827208DF88F
:10220000040000208DF805008DF8060001208DF8EF
:10221000070001A8FEF7BEFD08B010BD0004024093
:102220000048004010B5044600BF4021044800F0BB
:102230002DF80028F9D02146014800F0F2F810BD31
:102240000048004001F40072B2F5007F00D100BFE9
:10225000CA430280704710B50022002340F66A147A
:10226000A14200D100BF0A1201249440A3B2DC4372
:10227000048010BD21B1828942F40052828104E0C1
:1022800082894DF6FF731A40828170470246002012
:10229000B1F5007F00D100BF13880B400BB10120C6
:1022A00000E00020704770B502460024002300259E
:1022B000002040F66A16B14200D100BFC1F34215BA
:1022C00001F01F03012606FA03F3012D02D19689BE
:1022D000334006E0022D02D1168A334001E0968A8F
:1022E00033400C12012606FA04F41688344013B168
:1022F0000CB1012000E0002070BDF0B503460024C1
:1023000000260025002040F66A17B94200D100BF20
:102310001846C1F3421401F01F06012707FA06F51B
:10232000012C01D10C3004E0022C01D1103000E06E
:1023300014301AB107682F43076002E00768AF4303
:102340000760F0BD2DE9FF4705460E460024A14673
:1023500000BFA046B08900B100BF2C8A24F44054CD
:10236000F08804432C82AC8941F20C608443B0882D
:1023700031890843718908430443AC81AC8A24F451
:102380004074B0890443AC826846FEF7E5FD2048FE
:10239000854202D01F48854202D1DDF80C9001E051
:1023A000DDF80890A88900F4004040B109EBC900AD
:1023B00000EB091031684900B0FBF1F707E009EBC9
:1023C000C90000EB091031688900B0FBF1F7642007
:1023D000B7FBF0F004012009642101FB1078A88903
:1023E00000F4004040B1322000EBC800B0FBF1F037
:1023F00000F00700044308E0322000EB08106421DD
:10240000B0FBF1F000F00F0004432C81BDE8FF8722
:10241000001001400014014001468888C0F3080004
:102420007047C1F308028280704700BFFEE703B423
:1024300001984100009850EAC12018BF04204A0DBD
:1024400018BF40F0010040F2FF72B2EB515F08BFCD
:1024500040F00200012808BF052002B070470000CC
:1024600010B52F499FED2C1B2DED020B84B0059864
:1024700020F000408842D8BF9DED040B2DDD294996
:10248000884209D1049840B94FF00100FDF726FFBA
:1024900001F0EAFA06B010BD05DB9DED040B01F07A
:1024A000CFFA06B010BD68469DED040B00F0C8FEE3
:1024B00010F0030004BF9DED021B9DED000B0CD03E
:1024C00001280ED09DED021B9DED000B022817D0B8
:1024D000012001F005FA06B010BD01F0CDF806B0FC
:1024E00010BD9DED021B9DED000B012001F0F8F9E0
:1024F00051EC100B02F076F906B041EC100B10BD58
:1025000001F0BAF851EC100B02F06CF906B041EC96
:10251000100B10BD000000000000000000000000D3
:10252000FB21E93F0000F07F2DED020B019820F028
:10253000004001909DED000B02B0704700000000CC
:102540002DE9F04D2DED040B2DED0C8B96B0DDE952
:102550002350259CDDF888A025F0004624F0004893
:10256000BAF1000F14BF0121002101EB4502FE4921
:1025700053184A1093422AD3002814BF0123002382
:1025800003EB44030B44F9498B4220D358EA000182
:102590009FEDF78B6FD0DFF8E0B35D4503D1BAF163
:1025A000000F05D187E0BAF1000F08BF002100D06D
:1025B000012101EB450111F5001F08D8002814BFC7
:1025C0000121002101EB440111F5001F0BD99DED04
:1025D000241B9DED220B16B0BDEC0C8B04B0BDE8A6
:1025E000F04D01F037BA0027002DBCBFE349884504
:1025F00021DAE3498845A8BF02271CDAC3451ADC63
:10260000E04901EB2851142908DDC1F1340220FA18
:1026100002F101FA02F282420DD108E058B9C1F18B
:10262000140228FA02F101FA02F2424503D101F044
:102630000101C1F1020756EA0A011DD1002C1BDA83
:10264000002D18BF022F01D0012F0AD00220FDF764
:1026500045FE16B0BDEC0C8B04B0BDE8F04D01F0AA
:10266000D7B90220FDF73AFE01F0D2F951EC100B78
:1026700002F0B8F883E01EE09FEDC39B9FEDC4AB72
:10268000002872D1BD4880452DD105F1804010F55C
:10269000801008BFBAF1000F0DD0B34515DC002C37
:1026A000A1BF9DED240B16B0BDEC0C8B04B0A8BFF0
:1026B000BDE8F08D12E0B0EE480AF0EE680A16B000
:1026C000BDEC0C8B04B0BDE8F08D002C06DA9DED5E
:1026D000240B51EC100B02F085F850E0AE48784422
:1026E00090ED000BEBE7D8454FD1002C4ADA2EB124
:1026F00086423BD1BAF1000F44D126E0BAF1000F77
:1027000013D00220FDF7EAFD01F0BEF98DED020BBA
:102710009DED220B8DED000B10EE900A039961F3F5
:102720001E0003909DED020BC9E78DED029B9DED10
:10273000220B19EE901A10EE900A8DED000B61F34A
:102740001E0003909DED020BB9E78DED02AB9DEDF0
:10275000220B1AEE901A10EE900A8DED000B61F329
:102760001E0003909DED020BA9E729E00ADA9DED1A
:10277000220B51EC180B53EC102B02F02DF941EC0D
:10278000100B9CE79DED220B99E7864218DAB4F115
:10279000804F0DD0A4F10050B0F1FF5010D1002DAA
:1027A0000EDB9DED220B51EC100B01F0E4FFE6E790
:1027B0009DED220B53EC102B51EC100B00F0AEBC36
:1027C0009DED220B51EC100B01F00CFABAF1000F49
:1027D000CDE90C0134D19FED720BDEB1A6F1E040E2
:1027E000B0F17F602CD1002D01DD002C0DDA002D21
:1027F00001DD002C1FDB002D16DA002C14DB012F6D
:1028000008BF9FED690B3FF45AAFB0EE490AF0EEF6
:10281000690A54E7022F18BF002D0CD0012F0AD1EE
:10282000002DFFF64CAF06E0002DB8BF002C07DAF4
:10283000012F3FF444AFB0EE4A0AF0EE6A0A3EE7D9
:10284000012000EBE57A5AEA07000CD05848002531
:1028500080457CDD57495848884514DDB0420DDB82
:10286000002C19DB2BE00120FDF738FD16B0BDEC84
:102870000C8B04B0BDE8F04D01F0F6B8B34502DCB6
:10288000002C09DC1BE0864202DA002C17DA03E098
:102890005E4527DD002C12DD0220FDF71FFD01F053
:1028A000F3F810EE901A19EE900A8DED020B8DEDF3
:1028B000009B61F31E0003909DED020BFFE60220DA
:1028C000FDF70CFD01F0F0F810EE901A18EE900AEA
:1028D0008DED020B8DED008B61F31E0003909DEDDD
:1028E000020BECE69DED220B53EC182B51EC100B78
:1028F00002F06CFC9FED320BCDE90A0153EC102B7A
:102900009DED0A0B51EC100B02F054FA9FED2E1BBB
:1029100053EC112B02F082FB9DED0A1B53EC112BA3
:1029200002F048FA9FED2A1B53EC112B02F076FBC4
:102930009DED0A0B41EC190B53EC102B51EC100BD5
:1029400002F038FA53EC192B02F034FA00E07EE082
:102950009FED210B41EC1A0B53EC102B9DED0A0B54
:1029600051EC100B3CE00000FFFF1F00FFFF0F00C9
:10297000000000000000F03F0000F03F0000F07F8A
:102980000000404301FCFFFF000000000000F07F5A
:1029900000000000000000005E2F000000000000AA
:1029A0000000000000000080000000000000F0FFB8
:1029B0000000E0410000F043FFFFEF3F0000000097
:1029C000000000000000D03F555555555555D53FE6
:1029D000000000000000E03F000000604715F73FE6
:1029E00002F0E8F941EC190B9FEDFD0B51EC1A0BCD
:1029F00053EC102B02F0DEF941EC1A0B9FEDFA0BB1
:102A000053EC102B9DED0A0B51EC100B02F0D2F998
:102A100053EC1A2B02F0DAFB41EC1A0B51EC190BB8
:102A200053EC1A2B01F01CFF0690CDE906519DEDE9
:102A3000060B53EC192B51EC100B02F0C7FB53ECB7
:102A40001A2B02F0EBFA41EC100B00F09FB90020BA
:102A5000B6F5801F0EDA9FEDE60B53EC102B9DEDC3
:102A60000C0B51EC100B02F0A5F9CDE90C016FF045
:102A700034000E4600EB2650A0F2FF38C6F31300D8
:102A8000DD4940F07F6646F040568842D8BF0024BA
:102A900009DDDA498142C8BF012404DC0024A6F51F
:102AA000801608F10108D648784400EBC4000D9662
:102AB00090ED00BB9DED0C0B53EC1B2B51EC100B60
:102AC00002F084FB9DED0C0B41EC1A0B53EC1B2B1D
:102AD00051EC100B01F0C4FE41EC100B51EC180B43
:102AE00053EC102B01F078FF41EC1C0B51EC1A0B4E
:102AF00053EC1C2B02F05EF941EC190BC1488DED33
:102B0000109B7844109590ED000B4FF0005040EA78
:102B1000660000EB84408DED0A0B00F500200B9061
:102B20009DED0A0B53EC1B2B51EC100B02F04EFBEE
:102B30009DED0C1B53EC112B02F070FA41EC100BC5
:102B400053EC102B9DED100B51EC100B02F032F9F1
:102B50009DED0A0B41EC1B0B53EC102B9DED100B64
:102B600051EC100B02F026F953EC1A2B02F056FA36
:102B700053EC1B2B02F02AFB53EC1C2B02F01AF92E
:102B800041EC1B0B53EC192B51EC190B02F012F911
:102B900041EC1A0B9C480621B0EE4A0AF0EE6A0A94
:102BA000784400F021FEB0EE40CAF0EE60CA53EC6B
:102BB0001A2B51EC1A0B02F0FDF853EC1C2B02F00F
:102BC000F9F89DED100B41EC1A0B53EC192B51EC5D
:102BD000100B01F045FE53EC1B2B02F0EBF853EC0D
:102BE0001A2B01F03DFE9DED100B41EC1A0B53EC3E
:102BF000102B51EC100B02F0DDF841EC1C0B9FED9B
:102C000084DB53EC1D2B01F02BFE53EC1A2B01F04F
:102C100027FE0A90CDE90A519DED0A0B53EC1D2BBE
:102C200051EC100B02F0D2FA53EC1C2B02F0CEFA4E
:102C300053EC1A2B02F0F2F99DED0A0B41EC1C0B40
:102C400053EC102B9DED100B51EC100B02F0B2F871
:102C500041EC1A0B53EC192B51EC1C0B02F0AAF8A7
:102C60009DED0A0B41EC190B53EC102B51EC1B0B97
:102C700002F0A0F853EC192B01F0F2FD41EC190B16
:102C800051EC1A0B53EC192B01F0EAFD1090CDE931
:102C900010519DED100B53EC1A2B51EC100B02F060
:102CA00095FA53EC192B02F0B9F941EC190B9FED91
:102CB0005A0B53EC102B9DED100B51EC100B02F046
:102CC00079F841EC1A0B9FED560B51EC190B53ECB4
:102CD000102B02F06FF841EC190B9FED530B53ECE6
:102CE000102B9DED100B51EC100B02F063F853EC20
:102CF000192B01F0B5FD41EC100B4D48784400EB69
:102D0000C40090ED001B51EC100B53EC112B01F0A3
:102D1000A7FD41EC190B404601F0E5FFCDE90A01A2
:102D200053EC192B51EC1A0B01F09AFD41EC100BEE
:102D30004048784400EBC40090ED00BB51EC100B10
:102D400053EC1B2B01F08CFD9DED0A1B53EC112B5A
:102D500001F086FD0690CDE906519DED0A0B53EC7E
:102D6000102B9DED060B51EC100B02F02FFA53ECDB
:102D70001B2B02F02BFA53EC1A2B02F027FA53EC20
:102D8000192B02F04BF941EC100B00BF781EB0EE8E
:102D900048AAF0EE68AA5AEA000008BF9FED268B09
:102DA0009DED241B53EC102B8DED001B00959DED2C
:102DB000240B51EC100B01F0FDFF9DED000B41ECDD
:102DC000190B53EC102B9DED240B51EC100B02F062
:102DD000FDF99DED061B53EC112B01F0EBFF2FE0ED
:102DE000FE822B654715F73F44DF5DF80BAE543E7E
:102DF00000000000000040438E9803007AB60B00EC
:102E0000DC2A00003A2B0000142A00000000000019
:102E10000000000000000840000000E009C7EE3F8D
:102E2000FD033ADC09C7EE3FF5015B14E02F3EBE1F
:102E3000A828000062280000000000000000F0BF89
:102E400053EC192B01F00CFD9DED060B41EC190B19
:102E500053EC102B9DED000B51EC100B01F0AAFF71
:102E6000CDE910019DED100B51EC190B53EC102B1B
:102E700001F0F6FCCDE902010C46AB498C422FDB98
:102E8000611A084318D19DED100B53EC102B9DEDEA
:102E9000020B51EC100B02F099F941EC1B0B9FED6A
:102EA000A40B51EC190B53EC102B01F0D9FC53EC93
:102EB0001B2B02F07DF82DD20220FDF70FFA00F057
:102EC000E3FD10EE901A18EE900A8DED020B8DEDD9
:102ED000008B61F31E0003909DED020BFFF7EFBB2B
:102EE000954A24F00041914214D394492144084367
:102EF0007FF4E5AC9DED100B53EC102B9DED020B18
:102F000051EC100B02F062F953EC192B02F050F85F
:102F10007FF6D5AC24F0004089498A4A002601EBAF
:102F2000205182422BDA481C4FF4801121FA00F024
:102F30002044854AC0F30A517A44A1F2FF3192ED50
:102F4000000B824A8DED0A0BCA4020EA0202C0F350
:102F5000130040F48010C1F1140120FA01F60B9225
:102F6000002CB8BF76429DED0A0B53EC102B9DED63
:102F7000100B51EC100B02F029F9CDE910019DED79
:102F8000100B51EC190B53EC102B01F069FC9FED69
:102F9000700B0A90CDE90A5153EC102B9DED0A0BF2
:102FA00051EC100B01F006FF41EC1B0B9FED6A0B7F
:102FB00053EC102B9DED0A0B51EC100B01F0FAFEB7
:102FC0009DED100B41EC1C0B53EC102B9DED0A0BEF
:102FD00051EC100B02F0FAF853EC192B02F01EF82A
:102FE0009FED5F1B53EC112B01F0E4FE53EC1C2B07
:102FF00001F036FC41EC190B51EC1B0B53EC192B77
:1030000001F02EFCCDE902019DED020B53EC1B2BD0
:1030100051EC100B02F0DAF853EC192B01F0FEFF23
:103020009DED020B41EC190B53EC102B51EC100BE6
:1030300001F0C0FECDE90A014B489DED0A0B0521C8
:10304000784400F0D1FB9DED0A1B51EC100B53ECC2
:10305000112B01F0AFFE9DED021B53EC112B01F083
:10306000DDFFCDE906019DED020B53EC192B51EC70
:10307000100B01F09FFE53EC192B01F0F1FB9FEDBB
:103080003C0B41EC190B53EC102B9DED060B51EC56
:10309000100B02F09BF89DED060B41EC1B0B53EC63
:1030A000102B9DED020B51EC100B01F083FE53EC45
:1030B0001B2B01F091FC53EC192B02F087F89DEDCE
:1030C000021B53EC112B02F081F853EC1A2B01F088
:1030D000A5FFCDE9020101EB065001150029C8BF8B
:1030E000039015DC9DED020B324651EC100B02F003
:1030F00004FAFFF79CF9042808BF00F0D5FC32461B
:103100009DED020B51EC100B02F0F7F9CDE9020135
:103110009DED020B51EC180B53EC102B01F04AFE05
:10312000FFF72DBB000000000000904000000000F1
:10313000FE822B654715973C00CC904000346F3FD2
:1031400001FCFFFF0000E03F04270000FFFF0F002D
:1031500000000000432EE63F396CA80C615C20BEE5
:10316000EF39FAFE422EE63FA425000000000000E1
:10317000000000000000004010B52F499FED2C1BFF
:103180002DED020B84B0059820F000408842DCBF92
:1031900000209DED040B32DD2849884209D10498B6
:1031A00040B94FF00100FDF799F800F05DFC06B062
:1031B00010BD05DB9DED040B00F042FC06B010BD18
:1031C00068469DED040B00F03BF810F0030011D0B1
:1031D000012818D09DED021B9DED000B02281AD08E
:1031E00000F04AFA51EC100B01F0FCFA06B041EC89
:1031F000100B10BD9DED021B9DED000B012000F09A
:103200006FFB06B010BD9DED021B9DED000B00F0A5
:1032100033FA06B010BD012000F062FB51EC100B38
:1032200001F0E0FA06B041EC100B10BD0000000008
:103230000000000000000000FB21E93F0000F07FDB
:103240002DE9F14F04462DED020B2DED088B8AB0D0
:103250009FEDE70B80ED020B139EE74826F000453B
:1032600085420ADC9DED120B002084ED000B0AB0B4
:10327000BDEC088B03B0BDE8F08FE0489FEDE0ABFC
:103280009FEDE1BBA84247DDE14F9FEDE39B9FED42
:10329000E48B9DED120B53EC1A2B51EC100B002E0E
:1032A0001CDD01F093FF41EC100BBD4208D053EC44
:1032B0001B2B51EC100B01F089FFC4E900010BE05E
:1032C00053EC192B51EC100B01F080FF53EC182B31
:1032D00001F07CFFC4E900010120C8E701F0C0FA59
:1032E00041EC100BBD4208D053EC1B2B51EC100BE2
:1032F00001F0B6FAC4E900010BE053EC192B51ECD4
:10330000100B01F0ADFA53EC182B01F0A9FAC4E947
:1033100000014FF0FF30AAE7C348A84279DB9DEDDA
:10332000120B51EC100B00F05DFC41EC180B9FED03
:10333000C00B53EC102B01F03DFD9FEDBF1B53EC78
:10334000112B01F08DFA01F09FFC074601F0CBFC38
:1033500041EC190B53EC1A2B01F02CFD53EC182BFC
:1033600001F05CFE41EC180B53EC1B2B51EC190BDC
:1033700001F020FDDFF8C8A241EC100B4FEA155810
:103380000125FA4453EC102B51EC180B01F01EFFF1
:10339000032DC4E900013DD0C1F30A5005EB4511EE
:1033A000A8EB00001139814234DA0AEB051BB0EEBC
:1033B00048AA9BED000BF0EE68AA53EC102B51ECE1
:1033C000190B01F0F7FC41EC1B0B51EC1A0B53EC01
:1033D0001B2B01F0FBFE41EC180B51EC1A0B53ECCC
:1033E000182B01F0F3FE53EC1B2B01F0EFFE9BEDCD
:1033F000020B41EC1A0B53EC102B51EC190B01F0A2
:10340000D9FC53EC1A2B01F0E1FE41EC100B6D1CC2
:10341000B8E70EE0002EA8BF3846BFF628AF94EDFF
:10342000000B51EC100B01F0DDF9C4E9000178420A
:103430001DE7C6F3130040F4801EC6F30A50A0F245
:10344000F530471100F01F05C5F12000DDF848B048
:1034500008900020069007900520EC467949002D41
:1034600007EB0002794408BF51F8221009D051F847
:10347000223001EB8201AB404A68089922FA01F13F
:103480001943A1FB0E26A1FB0B131A449A4234BF29
:103490000123002303EB06080CEB8003D3E901A60C
:1034A0000E448E4234BF0121002192448A4411B15E
:1034B000924502D903E0924501D2012100E00021AA
:1034C000C3E901A641444CF82010011EA0F10100FF
:1034D000C4DC029800F10050850F0298DDE9036713
:1034E0008000DDF8148001F0FEFB41EC1A0B304641
:1034F00001F010FC9FED541B53EC112B01F05AFC12
:1035000041EC1B0B384601F005FC9FED511B53ECC1
:10351000112B01F04FFC41EC180B404601F0FAFB77
:103520009FED4D1B53EC112B01F044FC41EC190BAA
:1035300051EC180B53EC192B01F092F953EC1B2BA7
:1035400001F08EF953EC1A2B01F08AF9CDE908014C
:10355000002008909DED080B53EC1A2B51EC100B3A
:1035600001F034FE53EC1B2B01F030FE53EC182B12
:1035700001F02CFE53EC192B01F050FD9FED381B90
:1035800053EC112B01F016FC9FED370B41EC180B9F
:1035900053EC102B9DED080B51EC100B01F00AFCC5
:1035A00053EC182B01F05CF99FED310B41EC180B3B
:1035B00053EC102B9DED080B51EC100B01F0FAFBB6
:1035C00053EC182B01F04CF941EC100B139810F050
:1035D000004F06D06D4251EC100B01F003F941ECA5
:1035E000100B284684ED000B41E6000000000000AF
:1035F0000000000000000000FB21E93F7CD90240F0
:1036000000004054FB21F93F3163621A61B4D03DA0
:10361000FB21F93F000000000000601A61B4D03DBA
:103620007370032E8A19A33BFB213941000000006F
:1036300083C8C96D305FE43F000000000000E03F38
:10364000C222000010220000000000000000103E16
:10365000000000000000103C000000000000103AD4
:10366000182D4454FB21F93D3326A611460B113C7D
:1036700000000054FB21F93D10B52DED040B2DED9C
:10368000088B82B0B0EE419AF0EE619A0B9820F070
:1036900000449FED4BABB4F1795F11DA9DED0A0B5D
:1036A00051EC100B01F0F0FA002801BFB0EE4A0A0D
:1036B000F0EE6A0A02B0BDEC088B04BF04B010BD86
:1036C0009DED0A0B53EC102B51EC100B01F072FB2B
:1036D00041EC180B3C480621B0EE480AF0EE680AAF
:1036E000784400F081F853EC182B51EC100B01F0EA
:1036F00061FB9DED0A0B41EC1B0B53EC192B51ECBC
:10370000100B01F057FB41EC190B53EC1B2B51EC48
:10371000180B01F04FFB53EC192B01F057FD9FEDF7
:103720002C0B41EC190B53EC102B51EC180B01F046
:1037300041FB41EC100B2848844210DA53EC192B62
:1037400051EC100B01F042FD53EC1A2B01F066FC1A
:1037500041EC100B02B0BDEC088B04B010BD1F484B
:10376000A042BCBF9FED1E1B8DED001B06DBA4F528
:1037700000100190002000909DED001B51EC100BFB
:1037800053EC112B01F022FD9DED000B41EC180BC9
:1037900053EC102B51EC1A0B01F018FD41EC1A0BF5
:1037A00053EC192B51EC180B01F010FD53EC1A2BB4
:1037B00001F034FC41EC100BCCE7000000000000ED
:1037C000000000000000F03F2C1F0000000000007F
:1037D000000000000000E03F3333D33F0000E93F2A
:1037E000000000000000D23F70B504462DED028BB2
:1037F0004D1E00EBC500B0EE408AF0EE608A90ED01
:10380000000B35F0060017D053EC182B51EC100BC1
:1038100001F0D0FA41EC100B6D1E04EBC50090EDE9
:10382000001B51EC100B53EC112B01F019F841EC7B
:10383000100B35F00600E7D1022D36D0042D1CD038
:10384000062D1CBFBDEC028B70BD53EC182B51EC48
:10385000100B01F0AFFA94ED0A1B53EC112B00F0A2
:10386000FFFF53EC182B01F0A5FA94ED081B53EC65
:10387000112B00F0F5FF41EC100B53EC182B51EC21
:10388000100B01F097FA94ED061B53EC112B00F08E
:10389000E7FF53EC182B01F08DFA94ED040B53EC79
:1038A000102B00F0DDFF41EC100B53EC182B51EC0A
:1038B000100B01F07FFA94ED021B53EC112B00F07A
:1038C000CFFF53EC182B01F075FA94ED001B53EC6D
:1038D000112B00F0C5FFBDEC028B41EC100B70BD4D
:1038E00031B504462DED040B2DED0A8BB0EE41BA37
:1038F000F0EE61BA0B989DED0A0B20F00040B0F19C
:10390000795F0DDA51EC100BFEF791FD042808BF2A
:1039100000F0CAF89DED0A0BBDEC0A8B05B030BD76
:1039200053EC102B51EC100B01F044FA41EC180B46
:103930009DED0A0B53EC182B51EC100B01F03AFAE9
:1039400041EC190B2C48B0EE480AF0EE680A05214C
:103950007844FFF749FF9FED2ACBB0EE40AAF0EE86
:1039600060AA9CB353EC1C2B51EC190B01F022FA0A
:1039700041EC1C0B53EC1A2B51EC190B01F01AFA09
:103980009FED210B41EC190B53EC102B51EC1B0B51
:1039900001F010FA53EC192B01F018FC53EC182B22
:1039A00001F008FA53EC1B2B01F010FC53EC1C2B1C
:1039B00001F00CFC9DED0A1B53EC112B01F02EFBCA
:1039C000BDEC0A8B05B041EC100B30BDFFE753ECAA
:1039D0001A2B51EC180B01F0EDF953EC1C2B00F0F5
:1039E0003FFF53EC192B01F0E5F99DED0A1B53EC59
:1039F000112B00F035FFE3E7BC1D000000000000C4
:103A0000495555555555C5BF000000000000E03F21
:103A10009FED070B10B553EC102B9FED070B51ECEE
:103A2000100B00F0D9FF41EC100B10BD000000009E
:103A30000000000000000000000000000000F03F57
:103A400010B553EC102B51EC100B00F009FF41ECBA
:103A5000100B10BD10B553EC112B51EC100B00F0F6
:103A6000FFFE41EC100B10BD9FED050B10B553ECA4
:103A7000102B51EC100B00F0AFFF41EC100B10BD00
:103A800000000000000000009FED050B10B553EC96
:103A9000102B51EC100B01F08DF941EC100B10BD07
:103AA00000000000000000709FED050B10B553EC06
:103AB000102B51EC100B01F07DF941EC100B10BDF7
:103AC000000000000000001010B504466FF0040074
:103AD000FDF7E8FCE11704EB5171C1F3C7010A4A95
:103AE0001170A82094FBF0F0084908701046007887
:103AF00000EB4001C1EBC0104FF6FF7101EAC000BE
:103B00000349088010BD00000500002004000020CB
:103B10000600002070B504464FF4077094FBF0F0E7
:103B2000C6B24FF4077094FBF0F100FB114085B270
:103B300005E04FF4077000F02FF8701EC6B2002E9B
:103B4000F7D115B1284600F027F870BD0146114A9B
:103B500012784A434FF0E0235A6100229A611A46D4
:103B6000126942F001021A6100BF4FF0E0221069B1
:103B700000F001021AB100F48032002AF5D04FF0B3
:103B8000E022126922F001024FF0E0231A610022C4
:103B90009A617047050000200146114A12884A4385
:103BA0004FF0E0235A6100229A611A46126942F0EE
:103BB00001021A6100BF4FF0E022106900F001021B
:103BC0001AB100F48032002AF5D04FF0E0221269D9
:103BD00022F001024FF0E0231A6100229A6170473F
:103BE0000600002082B0CDE9000121F000400190E4
:103BF0009DED000B02B051EC100B7047ADF5007D50
:103C00000027FCF717FCFFE3FE4800788DF8F8006A
:103C1000FC4840788DF8F900FA4880788DF8FA0071
:103C2000F848C0788DF8FB00F64800798DF8FC0064
:103C3000F44840798DF8FD00F24880798DF8FE0057
:103C4000F048C0798DF8FF00EE48007A8DF8000149
:103C5000EC48407A8DF80101EA48807A8DF802013B
:103C6000E848C07A8DF80301E648007B8DF804012E
:103C7000E448407B8DF80501E248807B8DF8060121
:103C8000E048C07B8DF80701DE48007C8DF8080114
:103C9000DC48407C8DF80901DA48807C8DF80A0107
:103CA000D848C07C8DF80B01D648007D8DF80C01FA
:103CB000D448407D8DF80D01D248807D8DF80E01ED
:103CC000D048C07D8DF80F01CE48007E8DF81001E0
:103CD000CC48407E8DF81101CA48807E8DF81201D3
:103CE000C848C07E8DF81301C648007F8DF81401C6
:103CF000C448407F8DF81501C248807F8DF81601B9
:103D0000C048C07F8DF81701BE4890F820008DF89C
:103D10001801BC4890F821008DF81901B94890F8B5
:103D200022008DF81A01B74890F823008DF81B0186
:103D3000B44890F824008DF81C01B24890F8250092
:103D40008DF81D01AF4890F826008DF81E01AD4892
:103D500090F827008DF81F01AA4890F828008DF8E8
:103D60002001A84890F829008DF82101A54890F875
:103D70002A008DF82201A34890F82B008DF823012A
:103D8000A04890F82C008DF824019E4890F82D0052
:103D90008DF825019B4890F82E008DF82601994852
:103DA00090F82F008DF82701964890F830008DF894
:103DB0002801944890F831008DF82901914890F835
:103DC00032008DF82A018F4890F833008DF82B01CE
:103DD0008C4890F834008DF82C018A4890F8350012
:103DE0008DF82D01874890F836008DF82E01854812
:103DF00090F837008DF82F01824890F838008DF840
:103E00003001804890F839008DF831017D4890F8F4
:103E10003A008DF832017B4890F83B008DF8330171
:103E2000784890F83C008DF83401764890F83D00D1
:103E30008DF83501734890F83E008DF836017148D1
:103E400090F83F008DF837016E4890F840008DF8EB
:103E500038016C4890F841008DF83901694890F8B4
:103E600042008DF83A01674890F843008DF83B0115
:103E7000644890F844008DF83C01624890F8450091
:103E80008DF83D015F4890F846008DF83E015D4891
:103E900090F847008DF83F015A4890F848008DF897
:103EA0004001584890F849008DF84101554890F874
:103EB0004A008DF84201534890F84B008DF84301B9
:103EC000504890F84C008DF844014E4890F84D0051
:103ED0008DF845014B4890F84E008DF84601494851
:103EE00090F84F008DF84701464890F850008DF843
:103EF0004801444890F851008DF84901414890F834
:103F000052008DF84A013F4890F853008DF84B015C
:103F10003C4890F854008DF84C013A4890F8550010
:103F20008DF84D01374890F856008DF84E01354810
:103F300090F857008DF84F01324890F858008DF8EE
:103F40005001304890F859008DF851012D4890F8F3
:103F50005A008DF852012B4890F85B008DF8530100
:103F6000284890F85C008DF85401264890F85D00D0
:103F70008DF85501234890F85E008DF856012148D0
:103F800090F85F008DF857011E4890F860008DF89A
:103F900058011C4890F861008DF85901194890F8B3
:103FA00062008DF85A01174890F863008DF85B01A4
:103FB000144890F864008DF85C01124890F8650090
:103FC0008DF85D010F4890F866008DF85E010D4890
:103FD00090F867008DF85F010A4890F868008DF846
:103FE0006001084890F869008DF86101054890F873
:103FF0006A008DF86201034890F86B008DF8630148
:10400000004801E05400002090F86C008DF8640135
:10401000FC4890F86D008DF86501FA4890F86E0044
:104020008DF86601F74890F86F008DF86701F54844
:1040300090F870008DF86801F24890F871008DF8E2
:104040006901F04890F872008DF86A01ED4890F827
:1040500073008DF86B01EB4890F874008DF86C01DB
:10406000E84890F875008DF86D01E64890F8760004
:104070008DF86E01E34890F877008DF86F01E14804
:1040800090F878008DF87001DE4890F879008DF88E
:104090007101DC4890F87A008DF87201D94890F8E7
:1040A0007B008DF87301D74890F87C008DF874017F
:1040B000D44890F87D008DF87501D24890F87E00C4
:1040C0008DF87601CF4890F87F008DF87701CD48C4
:1040D00090F880008DF87801CA4890F881008DF83A
:1040E0007901C84890F882008DF87A01C54890F8A7
:1040F00083008DF87B01C34890F884008DF87C0123
:10410000C04890F885008DF87D01BE4890F8860083
:104110008DF87E01BB4890F887008DF87F01B94883
:1041200090F888008DF88001B64890F889008DF8E5
:104130008101B44890F88A008DF88201B14890F866
:104140008B008DF88301AF4890F88C008DF88401C6
:10415000AC4890F88D008DF88501AA4890F88E0043
:104160008DF88601A74890F88F008DF88701A54843
:1041700090F890008DF88801A24890F891008DF891
:104180008901A04890F892008DF88A019D4890F826
:1041900093008DF88B019B4890F894008DF88C016A
:1041A000984890F895008DF88D01964890F8960003
:1041B0008DF88E01934890F897008DF88F01914803
:1041C00090F898008DF890018E4890F899008DF83D
:1041D00091018C4890F89A008DF89201894890F8E6
:1041E0009B008DF89301874890F89C008DF894010E
:1041F000844890F89D008DF89501824890F89E00C3
:104200008DF896017F4890F89F008DF897017D48C2
:1042100090F8A0008DF898017A4890F8A1008DF8E8
:104220009901784890F8A2008DF89A01754890F8A5
:10423000A3008DF89B01734890F8A4008DF89C01B1
:10424000704890F8A5008DF89D016E4890F8A60082
:104250008DF89E016B4890F8A7008DF89F01694882
:1042600090F8A8008DF8A001664890F8A9008DF894
:10427000A101644890F8AA008DF8A201614890F865
:10428000AB008DF8A3015F4890F8AC008DF8A40155
:104290005C4890F8AD008DF8A5015A4890F8AE0042
:1042A0008DF8A601574890F8AF008DF8A701554842
:1042B00090F8B0008DF8A801524890F8B1008DF840
:1042C000A901504890F8B2008DF8AA014D4890F825
:1042D000B3008DF8AB014B4890F8B4008DF8AC01F9
:1042E000484890F8B5008DF8AD01464890F8B60002
:1042F0008DF8AE01434890F8B7008DF8AF01414802
:1043000090F8B8008DF8B0013E4890F8B9008DF8EB
:10431000B1013C4890F8BA008DF8B201394890F8E4
:10432000BB008DF8B301374890F8BC008DF8B4019C
:10433000344890F8BD008DF8B501324890F8BE00C1
:104340008DF8B6012F4890F8BF008DF8B7012D48C1
:1043500090F8C0008DF8B8012A4890F8C1008DF897
:10436000B901284890F8C2008DF8BA01254890F8A4
:10437000C3008DF8BB01234890F8C4008DF8BC0140
:10438000204890F8C5008DF8BD011E4890F8C60081
:104390008DF8BE011B4890F8C7008DF8BF01194881
:1043A00090F8C8008DF8C001164890F8C9008DF843
:1043B000C101144890F8CA008DF8C201114890F864
:1043C000CB008DF8C3010F4890F8CC008DF8C401E4
:1043D0000C4890F8CD008DF8C5010A4890F8CE0041
:1043E0008DF8C601074890F8CF008DF8C701054841
:1043F00090F8D0008DF8C801024890F8D1008DF8EF
:10440000C90102E05400002070E1B94890F8D200E0
:104410008DF8CA01B64890F8D3008DF8CB01B448A6
:1044200090F8D4008DF8CC01B14890F8D5008DF803
:10443000CD01AF4890F8D6008DF8CE01AC4890F889
:10444000D7008DF8CF01AA4890F8D8008DF8D00198
:10445000A74890F8D9008DF8D101A54890F8DA0066
:104460008DF8D201A24890F8DB008DF8D301A04866
:1044700090F8DC008DF8D4019D4890F8DD008DF8AF
:10448000D5019B4890F8DE008DF8D601984890F849
:10449000DF008DF8D701964890F8E0008DF8D8013C
:1044A000934890F8E1008DF8D901914890F8E20026
:1044B0008DF8DA018E4890F8E3008DF8DB018C4826
:1044C00090F8E4008DF8DC01894890F8E5008DF85B
:1044D000DD01874890F8E6008DF8DE01844890F809
:1044E000E7008DF8DF01824890F8E8008DF8E001E0
:1044F0007F4890F8E9008DF8E1017D4890F8EA00E6
:104500008DF8E2017A4890F8EB008DF8E3017848E5
:1045100090F8EC008DF8E401754890F8ED008DF806
:10452000E501734890F8EE008DF8E601704890F8C8
:10453000EF008DF8E7016E4890F8F0008DF8E80183
:104540006B4890F8F1008DF8E901694890F8F200A5
:104550008DF8EA01664890F8F3008DF8EB016448A5
:1045600090F8F4008DF8EC01614890F8F5008DF8B2
:10457000ED015F4890F8F6008DF8EE015C4890F888
:10458000F7008DF8EF015A4890F8F8008DF8F00127
:10459000574890F8F9008DF8F101554890F8FA0065
:1045A0008DF8F201524890F8FB008DF8F301504865
:1045B00090F8FC008DF8F4014D4890F8FD008DF85E
:1045C000F5014B4890F8FE008DF8F6014848D0F808
:1045D00000017E904648D0F80401F82242A97F905D
:1045E0006846FBF741FE3EA80FC800F08BF800B10B
:1045F0007CE03F4800F0A0F804463E4800780828D8
:104600006ED2DFE800F004166D202F3945543A4889
:10461000006808B9012000E0002037490860FF2C3D
:1046200006D1012033490870002034490880002752
:104630005AE0FF2C03D103202E49087002E000202D
:104640002C49087050E0012C08D12C4800882044E7
:104650002A49088004202749087002E000202549E3
:10466000087041E0254800882044244908802546F8
:1046700005202049087037E02048008820441F4961
:10468000088044EA052006B206201A4908702BE08B
:104690001A48008820441949088038467F1C184968
:1046A0000C54B74202DB0720124908701CE0134883
:1046B0000088FF2190FBF1F201FB12000F490880F6
:1046C00008460088844207D1FCF7BAFC00200B4959
:1046D00008800849087002E000200649087003E0DD
:1046E00000200449087000BF00BF00BFFFF78CBA6C
:1046F0005400002000000020BC02404202000020C4
:10470000F00100200FB440984199884202D1012065
:1047100004B070470020FBE70FB44198401CFF2114
:1047200090FBF1F201FB12004099884202D1012076
:1047300004B070470020FBE710B50146D1F8002116
:10474000885CD1F80021521CFF2392FBF3F403FB99
:104750001422C1F8002110BD10B5D0F804218154F5
:10476000D0F80421521CFF2392FBF3F403FB142224
:10477000C0F8042110BD00B52DED048B83B041ECD1
:10478000190B00F057FC41EC180B18EE100A18EE4C
:10479000901A8DED008B002818BF0120084320F0EF
:1047A0000040C0F17F6000F1E040C00F14D019EE6E
:1047B000101A19EE900A8DED009B002918BF0121F7
:1047C000084320F00040C0F17F6000F1E040C00FDE
:1047D00004BF0120FBF782FD51EC180B03B0BDECC8
:1047E000048B00BD81F00041704780F000407047AD
:1047F00021F00041704720F00040704721F0004256
:10480000A2F16052B2F5801F01F0004328BFD2F13F
:104810007F6C0BD95FEA001C43EAC20242EB507086
:1048200018BF704728BF20F001007047B2F5801F05
:10483000BCBF184670474FEA410C1CF5001F02D25E
:10484000084600F023BE70B500F05EFB0000008952
:10485000FFF7F6BF4FF00040A0F580007047000062
:1048600010B591EA030F48BF83F0004300F1B6840E
:10487000841A71EB030C05D2121943EB0C03001BD5
:1048800061EB0C01DFF824E14FEA1154A4EB135C57
:104890001EEA430F18BF9EEA445F73D023EA0E035B
:1048A000DCF1200E21EA045143F4801332D322FAC2
:1048B0000CFE10EB0E0023FA0CFE41EB0E01CCF1C6
:1048C000200E03FA0EFE10EB0E0051F10001B1F5BF
:1048D000801FCCF1200E32D201EB045112FA0EF2FD
:1048E000BDE8104058BF7047401C38BF5FEA420225
:1048F00018BF7047002814BF20F0010041F10001EB
:104900004FEA410313F5001F38BF7047A1F1C041C2
:1049100000F048BB012A43EB0302ACF1200CDCF1B0
:104920001F0E32BF4FF0000E23FA0CF310EB030002
:1049300041EB0451B4EB115FD0D0A1EB045101F570
:10494000801149085FEA300001EB04510ED350F1A9
:10495000000038BF12FA0EFE08D1BDE81040C9E7CA
:10496000401C38BF5FEA4202CAD1C3E7BDE810402D
:104970004FEA410313F5001F38BF7047A1F1C04152
:1049800000F010BB9EEA445F08D011EA5E0FBDE85C
:10499000104004BF01F0004100207047BDE8104006
:1049A00070B500F0B1FA00BF64FBBE3E0000E0FF4E
:1049B00002494FF0000000F06EBD00BF0000F87F1C
:1049C000491058BFC1F140415B1058BFC3F140438B
:1049D0008B42EFF3008070472DE9C04130B4DFF81F
:1049E000A0C23CEA111418BF3CEA131400F0EC809A
:1049F00081EA03051CEA111444EAD57418BF1CEAC5
:104A0000131500F0C780A4EB05044FF0004545EAFC
:104A1000C12145EAC32341EA505143EA525304F10C
:104A20007F74994204F500344FEAC0204FEAC22255
:104A300008BF904200F09C804FEA13650FF24016C9
:104A4000765D4FEA134506FB05F7C7F1807706FB55
:104A500007F74FEAD737A7FB03687642C8F58038D7
:104A6000A7FB06CE38BFA8F1010807FB08E64FF008
:104A7000000EA6FB028CE6FB03CEDCF1000CCEF1AF
:104A8000004E38BFAEF1010EA6FB0C584FF00007E8
:104A90004FF00005E6FB0E87A1FB08C6A0FB07CE82
:104AA00016EB0E0645F10005E1FB076515F1E04E3A
:104AB0007EBFA4F580345FEA46066D4116F180079B
:104AC00045F100054FEA17274FEA066647EA0567F2
:104AD000A6F1DE46B6F1805F4FEA15251FD93846AC
:104AE00024F0010C05EBC471BCF1FE6F01EB0C115D
:104AF00002D8F0BCBDE8008124425CBF01F5801EF5
:104B00009EEAC47F02D4F0BCBDE80081244238D4C0
:104B1000F0BCA1F1C041BDE8004100F043BA4FEA4A
:104B2000D22242EA43524FEAD323A7FB02864FEA3E
:104B3000D02040EA415007FB03661EEA0E0F4FEA01
:104B4000D12105FB026658BFA6EB0056B6EB005616
:104B50004FEA520E4EEAC37E18EB0E0E56EB530E82
:104B6000BDD518EB02085E417F1C55F10005B6E784
:104B70004FF480154FF000074FF000064FF000088B
:104B8000ADE7F0BC4FF0000001F1C04101F0004181
:104B9000BDE8008111EA0C1F0CEA131500D00CE0EF
:104BA00013EA0C1F00F025804FF00000F0BC81EAF2
:104BB000030101F00041BDE80081F0BCBDE8004107
:104BC00081EA030100F0EEB9F0BCBDE8004170B528
:104BD00000F09AF9097EFC3E00F007B881EA030173
:104BE0004FF0000001F00041704781EA030100F03E
:104BF000D9B9F0BCBDE800414FF000002149704731
:104C0000FFFDFBF9F7F5F4F2F0EEEDEBE9E8E6E491
:104C1000E3E1E0DEDDDBDAD8D7D5D4D3D1D0CFCD18
:104C2000CCCBCAC8C7C6C5C4C2C1C0BFBEBDBCBB51
:104C3000BAB9B8B7B6B5B4B3B2B1B0AFAEADACAB4C
:104C4000AAA9A8A8A7A6A5A4A3A3A2A1A09F9F9E26
:104C50009D9C9C9B9A9999989797969595949393D8
:104C6000929191908F8F8E8E8D8C8C8B8B8A89896F
:104C700088888787868585848483838282818180F2
:104C80000000FF070000F87F4FEA41034FEA53534B
:104C9000A3F58063D3F11E03C8BFD3F1210C0CDD53
:104CA0004FF0004242EAC12242EA505232FA03FC7B
:104CB0008CEAE17CACEBE1707047102BC4BF0020A4
:104CC000704703F5787CBCF1FF3F04D06FF00042E1
:104CD00082EA2100704770B500F016F949922480ED
:104CE00000207047F2E710F0004248BF4042B0FA9F
:104CF00080F310FA03F10AD0C3F11D0303F58063BA
:104D00004FEA415002EB035202EBD12170474FF0C2
:104D100000007047B0FA80F310FA03F10AD0C3F133
:104D20001D0303F580634FEA41504FEA035202EB43
:104D3000D12170474FF000007047000051EA030C8A
:104D400017D41CF5801F58BFBCF5801F00F10680EA
:104D5000994218BF704708BF9042704707D711F5B6
:104D6000801F58BF13F5801F19D49942704789429C
:104D700070471CF5801F08D5BCF5801FF7D58B4206
:104D800018BF704708BF824270474FF4001C1CEBED
:104D9000410F38BF1CEB430F01D28B42704770B5F7
:104DA00000F0B2F8922449004FF000514FF08053C8
:104DB000FFF706BEDFF848C170B51CEA111E1EBF22
:104DC0001CEA13159EEA0C0F95EA0C0F00F06F8099
:104DD00081EA030423EA4C134EEAD47E21EA4C1103
:104DE00041F4801143F48013AE44A1FB024CA0FBBC
:104DF0000365AEF17F7E361955EB0C05A1FB034C24
:104E00004CF10003A0FB021C16EB0C06654153F1AC
:104E10000003094218BF46F0010613F4007F0BD1CE
:104E20004FEA03314FEA0530340341EA155140EAB5
:104E300016506FF003020AE04FEAC3214FEAC52083
:104E4000F40241EA555140EA56506FF0020202EB7B
:104E50002E4201EB025585EACE710AD05FEA440C7E
:104E600018BF24F0004450F1000041F1000120EA95
:104E7000D47040F2FE7C624500D270BDA84214BFDF
:104E80004FF080444FF04044002E08BF0024BEF194
:104E9000806FA8BFA1F1C041BDE8704080F2828060
:104EA0004FF0000001F1C04101F0004170479EEA5F
:104EB0000C0F0CEA131518BF95EA0C0F06D04FF033
:104EC000000081EA030E0EF0004170BD00F01CF8F6
:104ED0008900013E00F007B800F009B84FEA430C22
:104EE0005FEA5C5C08D081EA030100F05BB84FEA3E
:104EF000410C5FEA5C5CF6D14FF00000014970475D
:104F00000000FF070000F87F0EF1020E2EF0030EE6
:104F10005EF8046B364205D4012A43EB030515F510
:104F2000001F12D8012841EB010C1CF5001F0CD802
:104F30000ED14FEAD17C15F5001F0CEB4C0C0CF197
:104F4000020C08BF4CEBD37C04E04FF0080C01E0EE
:104F50004FEAD37C0CEB4C0526FA05F606F0070663
:104F6000B6F1040C06D20EEB860CBDE870404CF096
:104F7000010C6047DFE80CF0090B02024FF0004122
:104F80004FF00000A1F5002170BD19461046012820
:104F900051EB010418BFD4F5001484BF002001F0C8
:104FA000004170BD0808A0F500114FEA31017047BB
:104FB00053EA010C17D41CF5801F58BFBCF5801FA5
:104FC00000F106808B4218BF704708BF82427047CD
:104FD00007D713F5801F58BF11F5801F19D48B42D6
:104FE00070479B4270471CF5801F08D5BCF5801F99
:104FF000F7D5994218BF704708BF904270474FF4E9
:10500000001C1CEB430F38BF1CEB410F01D299422F
:1050100070470FB40CBC03BCFFF7C1BE91EA030F8D
:1050200010B581F000413FF523AC83F0004300F060
:10503000D5B800002DE9F04101F5801CBCF5001F3A
:10504000C0F2A9804FEA115C21EA0C510CF1FD0C71
:1050500041F480115FEA5C0C0CF5C07C01D3400088
:10506000494130A4890241EA905187028E0E0A0C10
:10507000A45D04FB04F602FB06F6C6F14046A4FB61
:105080000662F60D46EA422606FB06F4A4FB01235F
:105090005242C3F1404338BF5B1EA6FB02420024CC
:1050A000E6FB0324D20B42EA4446A6FB0623A1FBFF
:1050B00002E2A3FB07E4E3FB61426442C2F1404E1B
:1050C00038BFAEF1010EA6FB04234FF00002E6FB51
:1050D0000E32A2FB03463400E2FB6264A1FB06E64B
:1050E000A4FB07E8E4FB61687642C8F1405838BF8A
:1050F000A8F10108A2FB06E4A3FB08E5E2FB685463
:10510000A1FB05E6A7FB04E8E1FB648618F1200596
:1051100056F10006A809A8F11B08B10908F03F08DC
:10512000B8F10A0F40EA86601CD901EB0C51BDE8CA
:10513000F08100BFFCF5EEE8E2DDD8D3CFCBC7C3EA
:10514000C0BDB9B6B4B1AEACA9A7A5A3A19F9D9BA4
:105150009A9896959392908F8D8C8B898887868567
:1051600084838281A0FB006800FB01F208EB420807
:10517000B8EB872807D5341858EB0104D5D5401C67
:1051800051F10001D1E7341A78EB0104CDD4401E6F
:1051900071F10001C9E75FEA4C0C5FEA9C5C0DD13C
:1051A00005D34FF0000001F00041BDE8F081BDE8FB
:1051B000F04170B5FFF7A8FE6DDBFFBEBDE8F04122
:1051C0004FF00000004970470000F87F10B591EAE9
:1051D000030F48BF83F000433FF54AAB841A71EBDD
:1051E000030C07D212198CF0004C43EB0C03001B8C
:1051F00061EB0C01DFF8A4E14FEA1154A4EB135C5E
:105200001EEA430F18BF9EEA445F00F0B08023EA15
:105210006E03524221EA0451C3EB6E0338BF5B1E9A
:10522000DCF1200E25D322FA0CFE10EB0E0043FA1F
:105230000CFE41EB0E01CCF1200E03FA0EFE10EB3A
:105240000E0051F10001CCF1200E29D412FA0EF219
:1052500001EB0451BDE8104058BF7047401C1CBF13
:10526000B2F1004F704700280CBF491C20F001002C
:10527000704712EB020E43EB030218BF4FF0010E12
:105280004EEA4202ACF1200CDCF11E0E54D943FA76
:105290000CFE10EB0E0051F1FF31CCF11E0ED5D5F6
:1052A0000EF1010E12FA0EFE404141EB010101EB3D
:1052B000445C5FEA5C5C10D910EBDE7001EB0451DA
:1052C00038BFBEF1004FBDE8104018BF704700283E
:1052D0000CBF491C20F00100704730D24FEAD42C9B
:1052E00011F5001124F400641BD0B1FA81F20B3ADD
:1052F000A41AA41ED2F12003914030FA03F31943FB
:10530000904001EBCC71002C01EB0451BDE8104042
:10531000A8BF704701F1C0414FF0000001F000410B
:105320007047B0FA80F310FA03F100D110BDE41A0F
:10533000173C4805C90AE4E701EB045110BD4910C8
:1053400001EB0451BDE810404FEA300002E04FF09D
:10535000000170474A0008BF0042F8D0B2F5001FB4
:1053600028BF704701F000414FF0000070479EEAEF
:10537000445F07D011EA5E0FBDE8104004BF002172
:1053800000207047BDE8104070B5FFF7BDFD00BFBD
:1053900040DFF63E83F00041104670470000E0FF1A
:1053A00043004FEAD30C4FEA3C0C43401FBF400779
:1053B0000CF1605113F0FE4F70471CF0006F03D1E9
:1053C00000200CF0004170470CF0004343EA50709D
:1053D00010B540EACC0000F00EF800BF00000092CB
:1053E0004FEA0001FFF7DEBD4FF000414FF0000033
:1053F000A1F5002170470EF1020E2EF0030E5EF8AB
:10540000044B244204D44FEA4102B2F17F4F11D839
:105410004FEA4003B3F17F4F0CD80ED14FEAD07C56
:10542000B2F17F4F0CEB4C0C0CF1020C08BF4CEBB3
:10543000D17C04E04FF0080C01E04FEAD17C0CEB8A
:105440004C0324FA03F404F00704B4F1040C06D26C
:105450000EEB840CBDE810404CF0010C6047DFE817
:105460000CF0070802024FF00040A0F5800010BDCC
:105470000846420018BFD2F1807288BF00F0004099
:1054800010BD4FF04070E1EE100A7047FF2141EA75
:10549000D050C00570470CF00F03092B08BF08203F
:1054A00000F059800A2B0BD0082B18BF704708BF9B
:1054B0001CF0400F0AD04FF000004FF00001704781
:1054C0001CF0400F18BF4FF0004070471CF0100F49
:1054D00008D020F0704300F07F4242EAD3014FEA47
:1054E0004370704700F0604021F07F4242EA0002C2
:1054F00001F07F4040EA727070474FF0FF0C4CF4AF
:10550000E06C1CEA11531CBF9CEA030C9445C2BF1B
:10551000DA4201EB02517047002B0DD0BCF1000FB5
:105520000FD0002A01F00041A4BF41F0E04141F05A
:105530007F614FF00000704701F000414FF0000024
:10554000704750EA01334FF09B0C18BF4CF0806C51
:105550007FF42EAA70471CF4801F11D01CF4E02F9A
:1055600003D06FEACC31490070474FF04050EFF361
:10557000008222F0704242EA000282F30088704703
:105580004FF0000070470000000000000000F03FF6
:10559000000000000000F83F0000000000000000D4
:1055A0000000004003B8E23F0000000000000000DF
:1055B00006D0CF43EBFD4C3E033333333333E33F6D
:1055C000FFAB6FDBB66DDB3F4D268F515555D53F99
:1055D00001411DA96074D13F65DBC9934A86CD3F67
:1055E000EF4E454A287ECA3F3E5555555555C53F55
:1055F00093BDBE166CC166BF2CDE25AF6A56113F47
:10560000F16BD2C541BDBBBED0A4BE726937663E48
:105610004C5555555555A53F7751C1166CC156BFD0
:105620009015CB19A001FA3EAD529C804F7E92BEE0
:10563000C4B1B4BD9EEE213ED43888BEE9FAA8BDFF
:10564000000000000000000000004054FB21F93F72
:105650003163621A61B4D03D0000601A61B4D03D7C
:105660007370032E8A19A33B0000002E8A19A33BF6
:10567000C14920259A837B3900000000000000000A
:105680006E83F9A22915444ED15727FCC0DD34F5AD
:10569000999562DB4190433CAB6351FE61C5BBDE33
:1056A0003A6E24B7E0D24D42EA2E49061C92D10947
:1056B0001CEB1DFE3EA729B1F53582E88444BB2EC4
:1056C00026709CE9417E5FB439D69139F439538311
:1056D0008B5F849C3B28F9BDFF97F81F0F9805DE70
:1056E0008B112FEF1F6D0A5ACF7E366DB709CB276E
:1056F000663F464F2DEA5F9EC7BA27757BF1E5EB03
:10570000F739073DEA92528AB15FFB6B085D8D1F46
:10571000A6F810111111813FD561C119A0012ABF4E
:105720007DFEB157E31DC73EEB9C2B8AE6E55ABED2
:105730007CD5CF5A3AD9E53D5857000800000020E3
:105740003C000000C4010008945700083C00002001
:10575000CC090000E001000800000000000000008B
:105760000000000000000000000000000000000039
:105770000000000000000000000000000000000029
:1057800001020304010203040607080900000000E7
:045790000000000015
:040000050800018965
:00000001FF
